{
  "contractName": "PollingSys",
  "abi": [
    {
      "anonymous": false,
      "inputs": [
        {
          "indexed": false,
          "internalType": "uint8",
          "name": "pollId",
          "type": "uint8"
        },
        {
          "indexed": false,
          "internalType": "uint8",
          "name": "optionId",
          "type": "uint8"
        },
        {
          "indexed": false,
          "internalType": "string",
          "name": "name",
          "type": "string"
        }
      ],
      "name": "OptionAdded",
      "type": "event"
    },
    {
      "anonymous": false,
      "inputs": [
        {
          "indexed": false,
          "internalType": "uint8",
          "name": "pollId",
          "type": "uint8"
        },
        {
          "indexed": false,
          "internalType": "address",
          "name": "author",
          "type": "address"
        },
        {
          "indexed": false,
          "internalType": "string",
          "name": "title",
          "type": "string"
        }
      ],
      "name": "PollCreated",
      "type": "event"
    },
    {
      "anonymous": false,
      "inputs": [
        {
          "indexed": false,
          "internalType": "uint8",
          "name": "pollId",
          "type": "uint8"
        },
        {
          "indexed": false,
          "internalType": "address",
          "name": "voter",
          "type": "address"
        },
        {
          "indexed": false,
          "internalType": "uint8",
          "name": "optionId",
          "type": "uint8"
        }
      ],
      "name": "Voted",
      "type": "event"
    },
    {
      "inputs": [],
      "name": "pollCount",
      "outputs": [
        {
          "internalType": "uint8",
          "name": "",
          "type": "uint8"
        }
      ],
      "stateMutability": "view",
      "type": "function",
      "constant": true
    },
    {
      "inputs": [
        {
          "internalType": "uint8",
          "name": "",
          "type": "uint8"
        }
      ],
      "name": "polls",
      "outputs": [
        {
          "internalType": "uint8",
          "name": "id",
          "type": "uint8"
        },
        {
          "internalType": "address",
          "name": "author",
          "type": "address"
        },
        {
          "internalType": "string",
          "name": "title",
          "type": "string"
        },
        {
          "internalType": "uint8",
          "name": "optionsCount",
          "type": "uint8"
        },
        {
          "internalType": "bytes32",
          "name": "accessCodeHash",
          "type": "bytes32"
        },
        {
          "internalType": "enum PollingSys.PHASE",
          "name": "state",
          "type": "uint8"
        }
      ],
      "stateMutability": "view",
      "type": "function",
      "constant": true
    },
    {
      "inputs": [
        {
          "internalType": "string",
          "name": "_title",
          "type": "string"
        },
        {
          "internalType": "string",
          "name": "_accessCode",
          "type": "string"
        }
      ],
      "name": "createPoll",
      "outputs": [],
      "stateMutability": "nonpayable",
      "type": "function"
    },
    {
      "inputs": [
        {
          "internalType": "uint8",
          "name": "_pollId",
          "type": "uint8"
        },
        {
          "internalType": "string",
          "name": "_name",
          "type": "string"
        }
      ],
      "name": "addOptionsToPoll",
      "outputs": [],
      "stateMutability": "nonpayable",
      "type": "function"
    },
    {
      "inputs": [
        {
          "internalType": "uint8",
          "name": "_pollId",
          "type": "uint8"
        },
        {
          "internalType": "uint8",
          "name": "_optionId",
          "type": "uint8"
        },
        {
          "internalType": "string",
          "name": "_accessCode",
          "type": "string"
        }
      ],
      "name": "vote",
      "outputs": [],
      "stateMutability": "nonpayable",
      "type": "function"
    },
    {
      "inputs": [
        {
          "internalType": "uint8",
          "name": "_pollId",
          "type": "uint8"
        },
        {
          "internalType": "uint8",
          "name": "_optionId",
          "type": "uint8"
        }
      ],
      "name": "getOption",
      "outputs": [
        {
          "internalType": "uint8",
          "name": "",
          "type": "uint8"
        },
        {
          "internalType": "string",
          "name": "",
          "type": "string"
        },
        {
          "internalType": "uint256",
          "name": "",
          "type": "uint256"
        }
      ],
      "stateMutability": "view",
      "type": "function",
      "constant": true
    }
  ],
  "bytecode": "0x608060405234801561001057600080fd5b506114d9806100206000396000f3fe608060405234801561001057600080fd5b50600436106100625760003560e01c806304710b66146100675780631c5657ef146100835780639207891d1461009f578063927011dd146100bd578063a748dc9b146100f2578063b81e23fb1461010e575b600080fd5b610081600480360381019061007c9190610c18565b610140565b005b61009d60048036038101906100989190610d3d565b6102f7565b005b6100a7610610565b6040516100b49190611050565b60405180910390f35b6100d760048036038101906100d29190610c84565b610621565b6040516100e9969594939291906110a9565b60405180910390f35b61010c60048036038101906101079190610cad565b61072c565b005b61012860048036038101906101239190610d01565b610a07565b60405161013793929190611148565b60405180910390f35b60008081819054906101000a900460ff168092919061015e90611381565b91906101000a81548160ff021916908360ff160217905550506000600160008060009054906101000a900460ff1660ff1660ff168152602001908152602001600020905060008054906101000a900460ff168160000160006101000a81548160ff021916908360ff160217905550338160000160016101000a81548173ffffffffffffffffffffffffffffffffffffffff021916908373ffffffffffffffffffffffffffffffffffffffff16021790555082816001019080519060200190610227929190610af8565b50816040516020016102399190610f99565b60405160208183030381529060405280519060200120816005018190555060008160060160006101000a81548160ff021916908360028111156102a5577f4e487b7100000000000000000000000000000000000000000000000000000000600052602160045260246000fd5b02179055507fc6b59520e007e34c40ece452816742b025a34e535a2853e2f3b246b9d603305f60008054906101000a900460ff1633856040516102ea9392919061106b565b60405180910390a1505050565b826001806002811115610333577f4e487b7100000000000000000000000000000000000000000000000000000000600052602160045260246000fd5b600160008460ff1660ff16815260200190815260200160002060060160009054906101000a900460ff166002811115610395577f4e487b7100000000000000000000000000000000000000000000000000000000600052602160045260246000fd5b146103d5576040517f08c379a00000000000000000000000000000000000000000000000000000000081526004016103cc90610fb0565b60405180910390fd5b6000600160008760ff1660ff168152602001908152602001600020905060008160040160003373ffffffffffffffffffffffffffffffffffffffff1673ffffffffffffffffffffffffffffffffffffffff16815260200190815260200160002090508060000160019054906101000a900460ff1615610489576040517f08c379a000000000000000000000000000000000000000000000000000000000815260040161048090611030565b60405180910390fd5b81600501548560405160200161049f9190610f99565b60405160208183030381529060405280519060200120146104f5576040517f08c379a00000000000000000000000000000000000000000000000000000000081526004016104ec90611010565b60405180910390fd5b60008660ff1611801561051f57508160020160009054906101000a900460ff1660ff168660ff1611155b61055e576040517f08c379a000000000000000000000000000000000000000000000000000000000815260040161055590610fd0565b60405180910390fd5b8160030160008760ff1660ff168152602001908152602001600020600201600081548092919061058d90611338565b919050555060018160000160016101000a81548160ff021916908315150217905550858160000160026101000a81548160ff021916908360ff1602179055507f51c6541400e7d16e7c379115ca484756f9f6217b0e25bee5121f2c28d3bb54208733886040516105ff93929190611111565b60405180910390a150505050505050565b60008054906101000a900460ff1681565b60016020528060005260406000206000915090508060000160009054906101000a900460ff16908060000160019054906101000a900473ffffffffffffffffffffffffffffffffffffffff169080600101805461067d90611306565b80601f01602080910402602001604051908101604052809291908181526020018280546106a990611306565b80156106f65780601f106106cb576101008083540402835291602001916106f6565b820191906000526020600020905b8154815290600101906020018083116106d957829003601f168201915b5050505050908060020160009054906101000a900460ff16908060050154908060060160009054906101000a900460ff16905086565b81600160008260ff1660ff16815260200190815260200160002060000160019054906101000a900473ffffffffffffffffffffffffffffffffffffffff1673ffffffffffffffffffffffffffffffffffffffff163373ffffffffffffffffffffffffffffffffffffffff16146107d7576040517f08c379a00000000000000000000000000000000000000000000000000000000081526004016107ce90610ff0565b60405180910390fd5b826000806002811115610813577f4e487b7100000000000000000000000000000000000000000000000000000000600052602160045260246000fd5b600160008460ff1660ff16815260200190815260200160002060060160009054906101000a900460ff166002811115610875577f4e487b7100000000000000000000000000000000000000000000000000000000600052602160045260246000fd5b146108b5576040517f08c379a00000000000000000000000000000000000000000000000000000000081526004016108ac90610fb0565b60405180910390fd5b6000600160008760ff1660ff168152602001908152602001600020905080600201600081819054906101000a900460ff16809291906108f390611381565b91906101000a81548160ff021916908360ff1602179055505060405180606001604052808260020160009054906101000a900460ff1660ff16815260200186815260200160008152508160030160008360020160009054906101000a900460ff1660ff1660ff16815260200190815260200160002060008201518160000160006101000a81548160ff021916908360ff16021790555060208201518160010190805190602001906109a5929190610af8565b50604082015181600201559050507f68f0f4f8783fab504e65f3c157502ba148ae373c1c7f0d365c8d33cfa62e5854868260020160009054906101000a900460ff16876040516109f793929190611186565b60405180910390a1505050505050565b60006060600080600160008760ff1660ff16815260200190815260200160002060030160008660ff1660ff16815260200190815260200160002090508060000160009054906101000a900460ff16816001018260020154818054610a6a90611306565b80601f0160208091040260200160405190810160405280929190818152602001828054610a9690611306565b8015610ae35780601f10610ab857610100808354040283529160200191610ae3565b820191906000526020600020905b815481529060010190602001808311610ac657829003601f168201915b50505050509150935093509350509250925092565b828054610b0490611306565b90600052602060002090601f016020900481019282610b265760008555610b6d565b82601f10610b3f57805160ff1916838001178555610b6d565b82800160010185558215610b6d579182015b82811115610b6c578251825591602001919060010190610b51565b5b509050610b7a9190610b7e565b5090565b5b80821115610b97576000816000905550600101610b7f565b5090565b6000610bae610ba9846111f5565b6111c4565b905082815260208101848484011115610bc657600080fd5b610bd18482856112c4565b509392505050565b600082601f830112610bea57600080fd5b8135610bfa848260208601610b9b565b91505092915050565b600081359050610c128161148c565b92915050565b60008060408385031215610c2b57600080fd5b600083013567ffffffffffffffff811115610c4557600080fd5b610c5185828601610bd9565b925050602083013567ffffffffffffffff811115610c6e57600080fd5b610c7a85828601610bd9565b9150509250929050565b600060208284031215610c9657600080fd5b6000610ca484828501610c03565b91505092915050565b60008060408385031215610cc057600080fd5b6000610cce85828601610c03565b925050602083013567ffffffffffffffff811115610ceb57600080fd5b610cf785828601610bd9565b9150509250929050565b60008060408385031215610d1457600080fd5b6000610d2285828601610c03565b9250506020610d3385828601610c03565b9150509250929050565b600080600060608486031215610d5257600080fd5b6000610d6086828701610c03565b9350506020610d7186828701610c03565b925050604084013567ffffffffffffffff811115610d8e57600080fd5b610d9a86828701610bd9565b9150509250925092565b610dad8161124c565b82525050565b610dbc8161125e565b82525050565b610dcb816112b2565b82525050565b6000610ddc82611225565b610de68185611230565b9350610df68185602086016112d3565b610dff81611467565b840191505092915050565b6000610e1582611225565b610e1f8185611241565b9350610e2f8185602086016112d3565b80840191505092915050565b6000610e48601283611230565b91507f496e76616c696420706f6c6c20737461746500000000000000000000000000006000830152602082019050919050565b6000610e88600e83611230565b91507f496e76616c6964206f7074696f6e0000000000000000000000000000000000006000830152602082019050919050565b6000610ec8602083611230565b91507f4f6e6c7920617574686f722063616e206d616e616765207468697320706f6c6c6000830152602082019050919050565b6000610f08601383611230565b91507f496e76616c69642061636365737320636f6465000000000000000000000000006000830152602082019050919050565b6000610f48601783611230565b91507f566f7465722068617320616c726561647920766f7465640000000000000000006000830152602082019050919050565b610f848161129b565b82525050565b610f93816112a5565b82525050565b6000610fa58284610e0a565b915081905092915050565b60006020820190508181036000830152610fc981610e3b565b9050919050565b60006020820190508181036000830152610fe981610e7b565b9050919050565b6000602082019050818103600083015261100981610ebb565b9050919050565b6000602082019050818103600083015261102981610efb565b9050919050565b6000602082019050818103600083015261104981610f3b565b9050919050565b60006020820190506110656000830184610f8a565b92915050565b60006060820190506110806000830186610f8a565b61108d6020830185610da4565b818103604083015261109f8184610dd1565b9050949350505050565b600060c0820190506110be6000830189610f8a565b6110cb6020830188610da4565b81810360408301526110dd8187610dd1565b90506110ec6060830186610f8a565b6110f96080830185610db3565b61110660a0830184610dc2565b979650505050505050565b60006060820190506111266000830186610f8a565b6111336020830185610da4565b6111406040830184610f8a565b949350505050565b600060608201905061115d6000830186610f8a565b818103602083015261116f8185610dd1565b905061117e6040830184610f7b565b949350505050565b600060608201905061119b6000830186610f8a565b6111a86020830185610f8a565b81810360408301526111ba8184610dd1565b9050949350505050565b6000604051905081810181811067ffffffffffffffff821117156111eb576111ea611438565b5b8060405250919050565b600067ffffffffffffffff8211156112105761120f611438565b5b601f19601f8301169050602081019050919050565b600081519050919050565b600082825260208201905092915050565b600081905092915050565b60006112578261127b565b9050919050565b6000819050919050565b600081905061127682611478565b919050565b600073ffffffffffffffffffffffffffffffffffffffff82169050919050565b6000819050919050565b600060ff82169050919050565b60006112bd82611268565b9050919050565b82818337600083830152505050565b60005b838110156112f15780820151818401526020810190506112d6565b83811115611300576000848401525b50505050565b6000600282049050600182168061131e57607f821691505b6020821081141561133257611331611409565b5b50919050565b60006113438261129b565b91507fffffffffffffffffffffffffffffffffffffffffffffffffffffffffffffffff821415611376576113756113ab565b5b600182019050919050565b600061138c826112a5565b915060ff8214156113a05761139f6113ab565b5b600182019050919050565b7f4e487b7100000000000000000000000000000000000000000000000000000000600052601160045260246000fd5b7f4e487b7100000000000000000000000000000000000000000000000000000000600052602160045260246000fd5b7f4e487b7100000000000000000000000000000000000000000000000000000000600052602260045260246000fd5b7f4e487b7100000000000000000000000000000000000000000000000000000000600052604160045260246000fd5b6000601f19601f8301169050919050565b60038110611489576114886113da565b5b50565b611495816112a5565b81146114a057600080fd5b5056fea2646970667358221220770ff03f1d53712db5df77adb481dacc9756c071f092ebc42220d9f12c8b72bb64736f6c63430008000033",
  "immutableReferences": {},
  "source": "\r\n// pragma solidity ^0.8.0;\r\n\r\n// contract PollingSys {\r\n//     struct Option {\r\n//         uint id;\r\n//         string name;\r\n//         uint voteCount;\r\n//     }\r\n\r\n//     struct Voter {\r\n//         bool isRegistered;\r\n//         bool hasVoted;\r\n//         uint vote;\r\n//     }\r\n\r\n//     address public author;\r\n//     uint public pollCount;\r\n//     mapping(uint => Poll) public polls;\r\n\r\n//     struct Poll {\r\n//         uint id;\r\n//         address author;\r\n//         string title;\r\n//         uint optionsCount;\r\n//         mapping(uint => Option) options;\r\n//         mapping(address => Voter) voters;\r\n//         string accessCode;\r\n//     }\r\n\r\n//     enum PHASE {\r\n//         reg,\r\n//         voting,\r\n//         done\r\n//     }\r\n//     PHASE public state;\r\n\r\n//     modifier onlyAuthor(uint _pollId) {\r\n//         require(\r\n//             msg.sender == polls[_pollId].author,\r\n//             \"Only author can manage this poll\"\r\n//         );\r\n//         _;\r\n//     }\r\n\r\n//     modifier validState(PHASE x) {\r\n//         require(state == x);\r\n//         _;\r\n//     }\r\n\r\n//     constructor() {\r\n//         author = msg.sender;\r\n//         state = PHASE.reg;\r\n//     }\r\n\r\n//     function changeState(PHASE x, uint _pollId) public onlyAuthor(_pollId) {\r\n//         require(x > state);\r\n//         state = x;\r\n//     }\r\n\r\n//     function createPoll(\r\n//         string memory _title,\r\n//         string memory _accessCode\r\n//     ) public validState(PHASE.reg) {\r\n//         pollCount++;\r\n//         Poll storage newPoll = polls[pollCount];\r\n//         newPoll.id = pollCount;\r\n//         newPoll.author = msg.sender;\r\n//         newPoll.title = _title;\r\n//         newPoll.accessCode = _accessCode;\r\n//     }\r\n\r\n//     function addOptionsToPoll(\r\n//         uint _pollId,\r\n//         string memory _name\r\n//     ) public onlyAuthor(_pollId) validState(PHASE.reg) {\r\n//         Poll storage poll = polls[_pollId];\r\n//         poll.optionsCount++;\r\n//         poll.options[poll.optionsCount] = Option(poll.optionsCount, _name, 0);\r\n//     }\r\n\r\n//     function vote(\r\n//         uint _pollId,\r\n//         uint _optionId,\r\n//         string memory _accessCode\r\n//     ) public validState(PHASE.voting) {\r\n//         Poll storage poll = polls[_pollId];\r\n//         Voter storage voter = poll.voters[msg.sender];\r\n\r\n//         require(!voter.hasVoted, \"Voter has already voted\");\r\n//         require(\r\n//             keccak256(abi.encodePacked(_accessCode)) ==\r\n//                 keccak256(abi.encodePacked(poll.accessCode)),\r\n//             \"Invalid access code\"\r\n//         );\r\n//         require(\r\n//             _optionId > 0 && _optionId <= poll.optionsCount,\r\n//             \"Invalid option\"\r\n//         );\r\n\r\n//         poll.options[_optionId].voteCount++;\r\n//         voter.hasVoted = true;\r\n//         voter.vote = _optionId;\r\n//     }\r\n\r\n//     function getPollResult(uint _pollId) public view returns (uint[] memory) {\r\n//         Poll storage poll = polls[_pollId];\r\n//         uint[] memory results = new uint[](poll.optionsCount);\r\n\r\n//         for (uint i = 1; i <= poll.optionsCount; i++) {\r\n//             results[i - 1] = poll.options[i].voteCount;\r\n//         }\r\n//         return results;\r\n//     }\r\n\r\n//     function getPollOption(\r\n//         uint _pollId,\r\n//         uint _optionId\r\n//     ) public view returns (Option memory) {\r\n//         return polls[_pollId].options[_optionId];\r\n//     }\r\n\r\n//     function getVoterStatus(\r\n//         uint _pollId,\r\n//         address _voter\r\n//     ) public view returns (Voter memory) {\r\n//         return polls[_pollId].voters[_voter];\r\n//     }\r\n\r\n//     function getPollAccessCodeHash(uint _pollId) public view returns (bytes32) {\r\n//         return keccak256(abi.encodePacked(polls[_pollId].accessCode));\r\n//     }\r\n// }\r\n\r\n// SPDX-License-Identifier: MIT\r\npragma solidity ^0.8.0;\r\n\r\ncontract PollingSys {\r\n    struct Option {\r\n        uint8 id;\r\n        string name;\r\n        uint voteCount;\r\n    }\r\n\r\n    struct Voter {\r\n        bool isRegistered;\r\n        bool hasVoted;\r\n        uint8 vote;\r\n    }\r\n\r\n    struct Poll {\r\n        uint8 id;\r\n        address author;\r\n        string title;\r\n        uint8 optionsCount;\r\n        mapping(uint8 => Option) options;\r\n        mapping(address => Voter) voters;\r\n        bytes32 accessCodeHash;\r\n        PHASE state;\r\n    }\r\n\r\n    enum PHASE {\r\n        reg,\r\n        voting,\r\n        done\r\n    }\r\n\r\n    uint8 public pollCount;\r\n    mapping(uint8 => Poll) public polls;\r\n\r\n    event PollCreated(uint8 pollId, address author, string title);\r\n    event OptionAdded(uint8 pollId, uint8 optionId, string name);\r\n    event Voted(uint8 pollId, address voter, uint8 optionId);\r\n\r\n    modifier onlyAuthor(uint8 _pollId) {\r\n        require(msg.sender == polls[_pollId].author, \"Only author can manage this poll\");\r\n        _;\r\n    }\r\n\r\n    modifier validState(uint8 _pollId, PHASE x) {\r\n        require(polls[_pollId].state == x, \"Invalid poll state\");\r\n        _;\r\n    }\r\n\r\n    function createPoll(string memory _title, string memory _accessCode) public {\r\n        pollCount++;\r\n        Poll storage newPoll = polls[pollCount];\r\n        newPoll.id = pollCount;\r\n        newPoll.author = msg.sender;\r\n        newPoll.title = _title;\r\n        newPoll.accessCodeHash = keccak256(abi.encodePacked(_accessCode));\r\n        newPoll.state = PHASE.reg;\r\n\r\n        emit PollCreated(pollCount, msg.sender, _title);\r\n    }\r\n\r\n    function addOptionsToPoll(uint8 _pollId, string memory _name) \r\n        public onlyAuthor(_pollId) validState(_pollId, PHASE.reg) \r\n    {\r\n        Poll storage poll = polls[_pollId];\r\n        poll.optionsCount++;\r\n        poll.options[poll.optionsCount] = Option(poll.optionsCount, _name, 0);\r\n\r\n        emit OptionAdded(_pollId, poll.optionsCount, _name);\r\n    }\r\n\r\n    function vote(uint8 _pollId, uint8 _optionId, string memory _accessCode) \r\n        public validState(_pollId, PHASE.voting) \r\n    {\r\n        Poll storage poll = polls[_pollId];\r\n        Voter storage voter = poll.voters[msg.sender];\r\n\r\n        require(!voter.hasVoted, \"Voter has already voted\");\r\n        require(keccak256(abi.encodePacked(_accessCode)) == poll.accessCodeHash, \"Invalid access code\");\r\n        require(_optionId > 0 && _optionId <= poll.optionsCount, \"Invalid option\");\r\n\r\n        poll.options[_optionId].voteCount++;\r\n        voter.hasVoted = true;\r\n        voter.vote = _optionId;\r\n\r\n        emit Voted(_pollId, msg.sender, _optionId);\r\n    }\r\n\r\n    function getOption(uint8 _pollId, uint8 _optionId) \r\n        public view returns (uint8, string memory, uint) \r\n    {\r\n        Option storage option = polls[_pollId].options[_optionId];\r\n        return (option.id, option.name, option.voteCount);\r\n    }\r\n}\r\n",
  "sourcePath": "D:\\TAILIEUHOCTAP\\HK9\\KLTN\\ProjectSource\\Version3.1\\polling_backend_nodejs\\contracts\\PollingSys.sol",
  "compiler": {
    "name": "solc",
    "version": "0.8.0+commit.c7dfd78e.Emscripten.clang"
  },
  "schemaVersion": "3.4.16",
  "updatedAt": "2024-11-17T05:47:21.835Z",
  "networkType": "ethereum",
  "devdoc": {
    "kind": "dev",
    "methods": {},
    "version": 1
  },
  "userdoc": {
    "kind": "user",
    "methods": {},
    "version": 1
  }
}