{
  "contractName": "PollingSys",
  "abi": [
    {
      "anonymous": false,
      "inputs": [
        {
          "indexed": false,
          "internalType": "uint8",
          "name": "pollId",
          "type": "uint8"
        },
        {
          "indexed": false,
          "internalType": "uint8",
          "name": "optionId",
          "type": "uint8"
        },
        {
          "indexed": false,
          "internalType": "string",
          "name": "name",
          "type": "string"
        }
      ],
      "name": "OptionAdded",
      "type": "event"
    },
    {
      "anonymous": false,
      "inputs": [
        {
          "indexed": false,
          "internalType": "uint8",
          "name": "pollId",
          "type": "uint8"
        },
        {
          "indexed": false,
          "internalType": "address",
          "name": "author",
          "type": "address"
        },
        {
          "indexed": false,
          "internalType": "string",
          "name": "title",
          "type": "string"
        }
      ],
      "name": "PollCreated",
      "type": "event"
    },
    {
      "anonymous": false,
      "inputs": [
        {
          "indexed": true,
          "internalType": "uint8",
          "name": "pollId",
          "type": "uint8"
        },
        {
          "indexed": false,
          "internalType": "enum PollingSys.STATE",
          "name": "newState",
          "type": "uint8"
        }
      ],
      "name": "StateChanged",
      "type": "event"
    },
    {
      "anonymous": false,
      "inputs": [
        {
          "indexed": false,
          "internalType": "uint8",
          "name": "pollId",
          "type": "uint8"
        },
        {
          "indexed": false,
          "internalType": "address",
          "name": "voter",
          "type": "address"
        },
        {
          "indexed": false,
          "internalType": "uint8",
          "name": "optionId",
          "type": "uint8"
        }
      ],
      "name": "Voted",
      "type": "event"
    },
    {
      "inputs": [],
      "name": "pollCount",
      "outputs": [
        {
          "internalType": "uint8",
          "name": "",
          "type": "uint8"
        }
      ],
      "stateMutability": "view",
      "type": "function",
      "constant": true
    },
    {
      "inputs": [
        {
          "internalType": "uint8",
          "name": "",
          "type": "uint8"
        }
      ],
      "name": "polls",
      "outputs": [
        {
          "internalType": "uint8",
          "name": "id",
          "type": "uint8"
        },
        {
          "internalType": "address",
          "name": "author",
          "type": "address"
        },
        {
          "internalType": "string",
          "name": "title",
          "type": "string"
        },
        {
          "internalType": "uint8",
          "name": "optionsCount",
          "type": "uint8"
        },
        {
          "internalType": "enum PollingSys.STATE",
          "name": "state",
          "type": "uint8"
        }
      ],
      "stateMutability": "view",
      "type": "function",
      "constant": true
    },
    {
      "inputs": [
        {
          "internalType": "string",
          "name": "_title",
          "type": "string"
        }
      ],
      "name": "createPoll",
      "outputs": [],
      "stateMutability": "nonpayable",
      "type": "function"
    },
    {
      "inputs": [
        {
          "internalType": "uint8",
          "name": "_pollId",
          "type": "uint8"
        },
        {
          "internalType": "string",
          "name": "_name",
          "type": "string"
        }
      ],
      "name": "addOptionsToPoll",
      "outputs": [],
      "stateMutability": "nonpayable",
      "type": "function"
    },
    {
      "inputs": [
        {
          "internalType": "uint8",
          "name": "_pollId",
          "type": "uint8"
        },
        {
          "internalType": "uint8",
          "name": "_optionId",
          "type": "uint8"
        }
      ],
      "name": "vote",
      "outputs": [],
      "stateMutability": "nonpayable",
      "type": "function"
    },
    {
      "inputs": [
        {
          "internalType": "uint8",
          "name": "_pollId",
          "type": "uint8"
        },
        {
          "internalType": "uint8",
          "name": "_optionId",
          "type": "uint8"
        }
      ],
      "name": "getVoteCount",
      "outputs": [
        {
          "internalType": "uint256",
          "name": "",
          "type": "uint256"
        }
      ],
      "stateMutability": "view",
      "type": "function",
      "constant": true
    },
    {
      "inputs": [
        {
          "internalType": "uint8",
          "name": "_pollId",
          "type": "uint8"
        },
        {
          "internalType": "uint8",
          "name": "_optionId",
          "type": "uint8"
        }
      ],
      "name": "getOptionById",
      "outputs": [
        {
          "components": [
            {
              "internalType": "uint8",
              "name": "id",
              "type": "uint8"
            },
            {
              "internalType": "string",
              "name": "name",
              "type": "string"
            },
            {
              "internalType": "uint256",
              "name": "voteCount",
              "type": "uint256"
            }
          ],
          "internalType": "struct PollingSys.Option",
          "name": "",
          "type": "tuple"
        }
      ],
      "stateMutability": "view",
      "type": "function",
      "constant": true
    },
    {
      "inputs": [
        {
          "internalType": "uint8",
          "name": "_pollId",
          "type": "uint8"
        },
        {
          "internalType": "enum PollingSys.STATE",
          "name": "_newState",
          "type": "uint8"
        }
      ],
      "name": "changePollState",
      "outputs": [],
      "stateMutability": "nonpayable",
      "type": "function"
    },
    {
      "inputs": [
        {
          "internalType": "uint8",
          "name": "_pollId",
          "type": "uint8"
        }
      ],
      "name": "getPollResult",
      "outputs": [
        {
          "internalType": "uint8[]",
          "name": "optionIds",
          "type": "uint8[]"
        },
        {
          "internalType": "uint256[]",
          "name": "voteCounts",
          "type": "uint256[]"
        }
      ],
      "stateMutability": "view",
      "type": "function",
      "constant": true
    }
  ],
  "bytecode": "0x608060405234801561001057600080fd5b50611c7c806100206000396000f3fe608060405234801561001057600080fd5b50600436106100935760003560e01c80639207891d116100665780639207891d14610131578063927011dd1461014f578063a748dc9b14610183578063c8e1107d1461019f578063df49c4de146101cf57610093565b806304b1d1731461009857806310eaa61d146100c95780631eb6e019146100f957806374a9ced914610115575b600080fd5b6100b260048036038101906100ad919061113b565b6101eb565b6040516100c092919061161e565b60405180910390f35b6100e360048036038101906100de91906111f4565b610433565b6040516100f09190611750565b60405180910390f35b610113600480360381019061010e9190611164565b61053a565b005b61012f600480360381019061012a91906110fa565b61073e565b005b6101396108c5565b604051610146919061178d565b60405180910390f35b6101696004803603810190610164919061113b565b6108d6565b60405161017a9594939291906117e6565b60405180910390f35b61019d600480360381019061019891906111a0565b6109db565b005b6101b960048036038101906101b491906111f4565b610cb6565b6040516101c69190611772565b60405180910390f35b6101e960048036038101906101e491906111f4565b610cf7565b005b6060806000600160008560ff1660ff168152602001908152602001600020905060008160020160009054906101000a900460ff1690508060ff1667ffffffffffffffff811115610264577f4e487b7100000000000000000000000000000000000000000000000000000000600052604160045260246000fd5b6040519080825280602002602001820160405280156102925781602001602082028036833780820191505090505b5093508060ff1667ffffffffffffffff8111156102d8577f4e487b7100000000000000000000000000000000000000000000000000000000600052604160045260246000fd5b6040519080825280602002602001820160405280156103065781602001602082028036833780820191505090505b5092506000600190505b8160ff168160ff161161042b578260030160008260ff1660ff16815260200190815260200160002060000160009054906101000a900460ff168560018361035791906119b5565b60ff1681518110610391577f4e487b7100000000000000000000000000000000000000000000000000000000600052603260045260246000fd5b602002602001019060ff16908160ff16815250508260030160008260ff1660ff16815260200190815260200160002060020154846001836103d291906119b5565b60ff168151811061040c577f4e487b7100000000000000000000000000000000000000000000000000000000600052603260045260246000fd5b602002602001018181525050808061042390611b14565b915050610310565b505050915091565b61043b610fa1565b600160008460ff1660ff16815260200190815260200160002060030160008360ff1660ff1681526020019081526020016000206040518060600160405290816000820160009054906101000a900460ff1660ff1660ff1681526020016001820180546104a690611a99565b80601f01602080910402602001604051908101604052809291908181526020018280546104d290611a99565b801561051f5780601f106104f45761010080835404028352916020019161051f565b820191906000526020600020905b81548152906001019060200180831161050257829003601f168201915b50505050508152602001600282015481525050905092915050565b6000600160008460ff1660ff16815260200190815260200160002090508060000160019054906101000a900473ffffffffffffffffffffffffffffffffffffffff1673ffffffffffffffffffffffffffffffffffffffff163373ffffffffffffffffffffffffffffffffffffffff16146105e9576040517f08c379a00000000000000000000000000000000000000000000000000000000081526004016105e0906116f0565b60405180910390fd5b8060050160009054906101000a900460ff166002811115610633577f4e487b7100000000000000000000000000000000000000000000000000000000600052602160045260246000fd5b82600281111561066c577f4e487b7100000000000000000000000000000000000000000000000000000000600052602160045260246000fd5b116106ac576040517f08c379a00000000000000000000000000000000000000000000000000000000081526004016106a390611730565b60405180910390fd5b818160050160006101000a81548160ff021916908360028111156106f9577f4e487b7100000000000000000000000000000000000000000000000000000000600052602160045260246000fd5b02179055508260ff167fe8a97ea87e4388fa22d496b95a8ed5ced6717f49790318de2b928aaf37a021d8836040516107319190611655565b60405180910390a2505050565b60008081819054906101000a900460ff168092919061075c90611b14565b91906101000a81548160ff021916908360ff160217905550506000600160008060009054906101000a900460ff1660ff1660ff168152602001908152602001600020905060008054906101000a900460ff168160000160006101000a81548160ff021916908360ff160217905550338160000160016101000a81548173ffffffffffffffffffffffffffffffffffffffff021916908373ffffffffffffffffffffffffffffffffffffffff16021790555081816001019080519060200190610825929190610fc5565b5060008160050160006101000a81548160ff02191690836002811115610874577f4e487b7100000000000000000000000000000000000000000000000000000000600052602160045260246000fd5b02179055507fc6b59520e007e34c40ece452816742b025a34e535a2853e2f3b246b9d603305f60008054906101000a900460ff1633846040516108b9939291906117a8565b60405180910390a15050565b60008054906101000a900460ff1681565b60016020528060005260406000206000915090508060000160009054906101000a900460ff16908060000160019054906101000a900473ffffffffffffffffffffffffffffffffffffffff169080600101805461093290611a99565b80601f016020809104026020016040519081016040528092919081815260200182805461095e90611a99565b80156109ab5780601f10610980576101008083540402835291602001916109ab565b820191906000526020600020905b81548152906001019060200180831161098e57829003601f168201915b5050505050908060020160009054906101000a900460ff16908060050160009054906101000a900460ff16905085565b81600160008260ff1660ff16815260200190815260200160002060000160019054906101000a900473ffffffffffffffffffffffffffffffffffffffff1673ffffffffffffffffffffffffffffffffffffffff163373ffffffffffffffffffffffffffffffffffffffff1614610a86576040517f08c379a0000000000000000000000000000000000000000000000000000000008152600401610a7d906116b0565b60405180910390fd5b826000806002811115610ac2577f4e487b7100000000000000000000000000000000000000000000000000000000600052602160045260246000fd5b600160008460ff1660ff16815260200190815260200160002060050160009054906101000a900460ff166002811115610b24577f4e487b7100000000000000000000000000000000000000000000000000000000600052602160045260246000fd5b14610b64576040517f08c379a0000000000000000000000000000000000000000000000000000000008152600401610b5b90611670565b60405180910390fd5b6000600160008760ff1660ff168152602001908152602001600020905080600201600081819054906101000a900460ff1680929190610ba290611b14565b91906101000a81548160ff021916908360ff1602179055505060405180606001604052808260020160009054906101000a900460ff1660ff16815260200186815260200160008152508160030160008360020160009054906101000a900460ff1660ff1660ff16815260200190815260200160002060008201518160000160006101000a81548160ff021916908360ff1602179055506020820151816001019080519060200190610c54929190610fc5565b50604082015181600201559050507f68f0f4f8783fab504e65f3c157502ba148ae373c1c7f0d365c8d33cfa62e5854868260020160009054906101000a900460ff1687604051610ca693929190611877565b60405180910390a1505050505050565b6000600160008460ff1660ff16815260200190815260200160002060030160008360ff1660ff16815260200190815260200160002060020154905092915050565b8160016002811115610d32577f4e487b7100000000000000000000000000000000000000000000000000000000600052602160045260246000fd5b600160008360ff1660ff16815260200190815260200160002060050160009054906101000a900460ff166002811115610d94577f4e487b7100000000000000000000000000000000000000000000000000000000600052602160045260246000fd5b14610dd4576040517f08c379a0000000000000000000000000000000000000000000000000000000008152600401610dcb906116d0565b60405180910390fd5b6000600160008560ff1660ff168152602001908152602001600020905060008160040160003373ffffffffffffffffffffffffffffffffffffffff1673ffffffffffffffffffffffffffffffffffffffff16815260200190815260200160002090508060000160019054906101000a900460ff1615610e88576040517f08c379a0000000000000000000000000000000000000000000000000000000008152600401610e7f90611710565b60405180910390fd5b60008460ff16118015610eb257508160020160009054906101000a900460ff1660ff168460ff1611155b610ef1576040517f08c379a0000000000000000000000000000000000000000000000000000000008152600401610ee890611690565b60405180910390fd5b8160030160008560ff1660ff1681526020019081526020016000206002016000815480929190610f2090611acb565b919050555060018160000160016101000a81548160ff021916908315150217905550838160000160026101000a81548160ff021916908360ff1602179055507f51c6541400e7d16e7c379115ca484756f9f6217b0e25bee5121f2c28d3bb5420853386604051610f9293929190611840565b60405180910390a15050505050565b6040518060600160405280600060ff16815260200160608152602001600081525090565b828054610fd190611a99565b90600052602060002090601f016020900481019282610ff3576000855561103a565b82601f1061100c57805160ff191683800117855561103a565b8280016001018555821561103a579182015b8281111561103957825182559160200191906001019061101e565b5b509050611047919061104b565b5090565b5b8082111561106457600081600090555060010161104c565b5090565b600061107b611076846118e6565b6118b5565b90508281526020810184848401111561109357600080fd5b61109e848285611a57565b509392505050565b6000813590506110b581611c1f565b92915050565b600082601f8301126110cc57600080fd5b81356110dc848260208601611068565b91505092915050565b6000813590506110f481611c2f565b92915050565b60006020828403121561110c57600080fd5b600082013567ffffffffffffffff81111561112657600080fd5b611132848285016110bb565b91505092915050565b60006020828403121561114d57600080fd5b600061115b848285016110e5565b91505092915050565b6000806040838503121561117757600080fd5b6000611185858286016110e5565b9250506020611196858286016110a6565b9150509250929050565b600080604083850312156111b357600080fd5b60006111c1858286016110e5565b925050602083013567ffffffffffffffff8111156111de57600080fd5b6111ea858286016110bb565b9150509250929050565b6000806040838503121561120757600080fd5b6000611215858286016110e5565b9250506020611226858286016110e5565b9150509250929050565b600061123c83836115e2565b60208301905092915050565b60006112548383611600565b60208301905092915050565b611269816119e9565b82525050565b600061127a82611936565b6112848185611971565b935061128f83611916565b8060005b838110156112c05781516112a78882611230565b97506112b283611957565b925050600181019050611293565b5085935050505092915050565b60006112d882611941565b6112e28185611982565b93506112ed83611926565b8060005b8381101561131e5781516113058882611248565b975061131083611964565b9250506001810190506112f1565b5085935050505092915050565b61133481611a45565b82525050565b60006113458261194c565b61134f8185611993565b935061135f818560208601611a66565b61136881611bfa565b840191505092915050565b600061137e8261194c565b61138881856119a4565b9350611398818560208601611a66565b6113a181611bfa565b840191505092915050565b60006113b96012836119a4565b91507f496e76616c696420706f6c6c20737461746500000000000000000000000000006000830152602082019050919050565b60006113f9600e836119a4565b91507f496e76616c6964206f7074696f6e0000000000000000000000000000000000006000830152602082019050919050565b60006114396020836119a4565b91507f4f6e6c7920617574686f722063616e206d616e616765207468697320706f6c6c6000830152602082019050919050565b6000611479601f836119a4565b91507f506f6c6c206973206e6f7420696e2074686520766f74696e67207068617365006000830152602082019050919050565b60006114b9602a836119a4565b91507f4f6e6c79207468652063726561746f722063616e206368616e6765207468652060008301527f706f6c6c207374617465000000000000000000000000000000000000000000006020830152604082019050919050565b600061151f6017836119a4565b91507f566f7465722068617320616c726561647920766f7465640000000000000000006000830152602082019050919050565b600061155f6018836119a4565b91507f496e76616c6964207374617465207472616e736974696f6e00000000000000006000830152602082019050919050565b60006060830160008301516115aa6000860182611600565b50602083015184820360208601526115c2828261133a565b91505060408301516115d760408601826115e2565b508091505092915050565b6115eb81611a2e565b82525050565b6115fa81611a2e565b82525050565b61160981611a38565b82525050565b61161881611a38565b82525050565b6000604082019050818103600083015261163881856112cd565b9050818103602083015261164c818461126f565b90509392505050565b600060208201905061166a600083018461132b565b92915050565b60006020820190508181036000830152611689816113ac565b9050919050565b600060208201905081810360008301526116a9816113ec565b9050919050565b600060208201905081810360008301526116c98161142c565b9050919050565b600060208201905081810360008301526116e98161146c565b9050919050565b60006020820190508181036000830152611709816114ac565b9050919050565b6000602082019050818103600083015261172981611512565b9050919050565b6000602082019050818103600083015261174981611552565b9050919050565b6000602082019050818103600083015261176a8184611592565b905092915050565b600060208201905061178760008301846115f1565b92915050565b60006020820190506117a2600083018461160f565b92915050565b60006060820190506117bd600083018661160f565b6117ca6020830185611260565b81810360408301526117dc8184611373565b9050949350505050565b600060a0820190506117fb600083018861160f565b6118086020830187611260565b818103604083015261181a8186611373565b9050611829606083018561160f565b611836608083018461132b565b9695505050505050565b6000606082019050611855600083018661160f565b6118626020830185611260565b61186f604083018461160f565b949350505050565b600060608201905061188c600083018661160f565b611899602083018561160f565b81810360408301526118ab8184611373565b9050949350505050565b6000604051905081810181811067ffffffffffffffff821117156118dc576118db611bcb565b5b8060405250919050565b600067ffffffffffffffff82111561190157611900611bcb565b5b601f19601f8301169050602081019050919050565b6000819050602082019050919050565b6000819050602082019050919050565b600081519050919050565b600081519050919050565b600081519050919050565b6000602082019050919050565b6000602082019050919050565b600082825260208201905092915050565b600082825260208201905092915050565b600082825260208201905092915050565b600082825260208201905092915050565b60006119c082611a38565b91506119cb83611a38565b9250828210156119de576119dd611b3e565b5b828203905092915050565b60006119f482611a0e565b9050919050565b6000819050611a0982611c0b565b919050565b600073ffffffffffffffffffffffffffffffffffffffff82169050919050565b6000819050919050565b600060ff82169050919050565b6000611a50826119fb565b9050919050565b82818337600083830152505050565b60005b83811015611a84578082015181840152602081019050611a69565b83811115611a93576000848401525b50505050565b60006002820490506001821680611ab157607f821691505b60208210811415611ac557611ac4611b9c565b5b50919050565b6000611ad682611a2e565b91507fffffffffffffffffffffffffffffffffffffffffffffffffffffffffffffffff821415611b0957611b08611b3e565b5b600182019050919050565b6000611b1f82611a38565b915060ff821415611b3357611b32611b3e565b5b600182019050919050565b7f4e487b7100000000000000000000000000000000000000000000000000000000600052601160045260246000fd5b7f4e487b7100000000000000000000000000000000000000000000000000000000600052602160045260246000fd5b7f4e487b7100000000000000000000000000000000000000000000000000000000600052602260045260246000fd5b7f4e487b7100000000000000000000000000000000000000000000000000000000600052604160045260246000fd5b6000601f19601f8301169050919050565b60038110611c1c57611c1b611b6d565b5b50565b60038110611c2c57600080fd5b50565b611c3881611a38565b8114611c4357600080fd5b5056fea2646970667358221220f1e02ba6092df11325bc2d4f24ef0483bed920a28d2c3d5e27ed30ed2a673de764736f6c63430008000033",
  "immutableReferences": {},
  "source": "// SPDX-License-Identifier: MIT\r\npragma solidity ^0.8.0;\r\n\r\ncontract PollingSys {\r\n    struct Option {\r\n        uint8 id;\r\n        string name;\r\n        uint voteCount;\r\n    }\r\n\r\n    struct Voter {\r\n        bool isRegistered;\r\n        bool hasVoted;\r\n        uint8 vote;\r\n    }\r\n\r\n    struct Poll {\r\n        uint8 id;\r\n        address author;\r\n        string title;\r\n        uint8 optionsCount;\r\n        mapping(uint8 => Option) options;\r\n        mapping(address => Voter) voters;\r\n        STATE state;\r\n    }\r\n\r\n    enum STATE {\r\n        created,\r\n        voting,\r\n        finished\r\n    }\r\n\r\n    uint8 public pollCount;\r\n    mapping(uint8 => Poll) public polls;\r\n\r\n    event PollCreated(uint8 pollId, address author, string title);\r\n    event OptionAdded(uint8 pollId, uint8 optionId, string name);\r\n    event Voted(uint8 pollId, address voter, uint8 optionId);\r\n    // S kin  theo di thay i trng thi\r\n    event StateChanged(uint8 indexed pollId, STATE newState);\r\n\r\n    modifier onlyAuthor(uint8 _pollId) {\r\n        require(msg.sender == polls[_pollId].author, \"Only author can manage this poll\");\r\n        _;\r\n    }\r\n\r\n    modifier validState(uint8 _pollId, STATE x) {\r\n        require(polls[_pollId].state == x, \"Invalid poll state\");\r\n        _;\r\n    }\r\n\r\n    modifier onlyVotingState(uint8 pollId) {\r\n        require(polls[pollId].state == STATE.voting, \"Poll is not in the voting phase\");\r\n        _;\r\n    }\r\n\r\n    function createPoll(string memory _title) public {\r\n        pollCount++;\r\n        Poll storage newPoll = polls[pollCount];\r\n        newPoll.id = pollCount;\r\n        newPoll.author = msg.sender;\r\n        newPoll.title = _title;\r\n        newPoll.state = STATE.created;\r\n\r\n        emit PollCreated(pollCount, msg.sender, _title);\r\n    }\r\n\r\n    function addOptionsToPoll(uint8 _pollId, string memory _name) \r\n        public onlyAuthor(_pollId) validState(_pollId, STATE.created) \r\n    {\r\n        Poll storage poll = polls[_pollId];\r\n        poll.optionsCount++;\r\n        poll.options[poll.optionsCount] = Option(poll.optionsCount, _name, 0);\r\n\r\n        emit OptionAdded(_pollId, poll.optionsCount, _name);\r\n    }\r\n\r\n    function vote(uint8 _pollId, uint8 _optionId) \r\n        public onlyVotingState(_pollId)\r\n    {\r\n        Poll storage poll = polls[_pollId];\r\n        Voter storage voter = poll.voters[msg.sender];\r\n\r\n        require(!voter.hasVoted, \"Voter has already voted\");\r\n        require(_optionId > 0 && _optionId <= poll.optionsCount, \"Invalid option\");\r\n\r\n        poll.options[_optionId].voteCount++;\r\n        voter.hasVoted = true;\r\n        voter.vote = _optionId;\r\n\r\n        emit Voted(_pollId, msg.sender, _optionId);\r\n    }\r\n\r\n//     function getPollResult(uint8 _pollId) public view returns (Option[] memory) {\r\n//     Poll storage poll = polls[_pollId];\r\n//     Option[] memory results = new Option[](poll.optionsCount);\r\n\r\n//     for (uint8 i = 1; i <= poll.optionsCount; i++) {\r\n//         Option memory option;\r\n//         option.id = i;\r\n//         option.name = poll.options[i].name;  \r\n//         option.voteCount = poll.options[i].voteCount;\r\n//         results[i - 1] = option;\r\n//     }\r\n\r\n//     return results;\r\n// }\r\n\r\n    //Hm get vote count per option\r\n    function getVoteCount(uint8 _pollId, uint8 _optionId) public view returns (uint) {\r\n    return polls[_pollId].options[_optionId].voteCount;\r\n}\r\n\r\n    // Hm get option by id\r\n    function getOptionById(uint8 _pollId, uint8 _optionId) public view returns (Option memory) {\r\n    return polls[_pollId].options[_optionId];\r\n}\r\n\r\n    // Hm  thay i trng thi ca poll\r\nfunction changePollState(uint8 _pollId, STATE _newState) public {\r\n    Poll storage poll = polls[_pollId];\r\n\r\n    // Kim tra quyn \r\n    require(msg.sender == poll.author, \"Only the creator can change the poll state\");\r\n\r\n    // Kim tra logic (trng thi mi phi hp l )\r\n    require(_newState > poll.state, \"Invalid state transition\");\r\n\r\n    // Cp nht trng thi\r\n    poll.state = _newState;\r\n\r\n    // Pht s kin\r\n    emit StateChanged(_pollId, _newState);\r\n}\r\n\r\n\r\n    function getPollResult(uint8 _pollId) \r\n        public \r\n        view \r\n        returns (uint8[] memory optionIds, uint[] memory voteCounts) \r\n    {\r\n        Poll storage poll = polls[_pollId];\r\n        uint8 count = poll.optionsCount;\r\n\r\n        optionIds = new uint8[](count);\r\n        voteCounts = new uint[](count);\r\n\r\n        for (uint8 i = 1; i <= count; i++) {\r\n            optionIds[i - 1] = poll.options[i].id;\r\n            voteCounts[i - 1] = poll.options[i].voteCount;\r\n        }\r\n\r\n        return (optionIds, voteCounts);\r\n    }\r\n\r\n} ",
  "sourcePath": "D:\\TAILIEUHOCTAP\\HK9\\KLTN\\ProjectSource\\Version5\\polling_backend_nodejs\\contracts\\PollingSys.sol",
  "compiler": {
    "name": "solc",
    "version": "0.8.0+commit.c7dfd78e.Emscripten.clang"
  },
  "schemaVersion": "3.4.16",
  "updatedAt": "2024-11-22T06:31:13.507Z",
  "networkType": "ethereum",
  "devdoc": {
    "kind": "dev",
    "methods": {},
    "version": 1
  },
  "userdoc": {
    "kind": "user",
    "methods": {},
    "version": 1
  }
}