{
  "contractName": "PollingSys",
  "abi": [
    {
      "anonymous": false,
      "inputs": [
        {
          "indexed": false,
          "internalType": "uint8",
          "name": "pollId",
          "type": "uint8"
        },
        {
          "indexed": false,
          "internalType": "uint8",
          "name": "optionId",
          "type": "uint8"
        },
        {
          "indexed": false,
          "internalType": "string",
          "name": "name",
          "type": "string"
        }
      ],
      "name": "OptionAdded",
      "type": "event"
    },
    {
      "anonymous": false,
      "inputs": [
        {
          "indexed": false,
          "internalType": "uint8",
          "name": "pollId",
          "type": "uint8"
        },
        {
          "indexed": false,
          "internalType": "address",
          "name": "author",
          "type": "address"
        },
        {
          "indexed": false,
          "internalType": "string",
          "name": "title",
          "type": "string"
        }
      ],
      "name": "PollCreated",
      "type": "event"
    },
    {
      "anonymous": false,
      "inputs": [
        {
          "indexed": true,
          "internalType": "uint8",
          "name": "pollId",
          "type": "uint8"
        },
        {
          "indexed": false,
          "internalType": "enum PollingSys.STATE",
          "name": "newState",
          "type": "uint8"
        }
      ],
      "name": "StateChanged",
      "type": "event"
    },
    {
      "anonymous": false,
      "inputs": [
        {
          "indexed": false,
          "internalType": "uint8",
          "name": "pollId",
          "type": "uint8"
        },
        {
          "indexed": false,
          "internalType": "address",
          "name": "voter",
          "type": "address"
        },
        {
          "indexed": false,
          "internalType": "uint8",
          "name": "optionId",
          "type": "uint8"
        }
      ],
      "name": "Voted",
      "type": "event"
    },
    {
      "inputs": [],
      "name": "pollCount",
      "outputs": [
        {
          "internalType": "uint8",
          "name": "",
          "type": "uint8"
        }
      ],
      "stateMutability": "view",
      "type": "function",
      "constant": true
    },
    {
      "inputs": [
        {
          "internalType": "uint8",
          "name": "",
          "type": "uint8"
        }
      ],
      "name": "polls",
      "outputs": [
        {
          "internalType": "uint8",
          "name": "id",
          "type": "uint8"
        },
        {
          "internalType": "address",
          "name": "author",
          "type": "address"
        },
        {
          "internalType": "string",
          "name": "title",
          "type": "string"
        },
        {
          "internalType": "uint8",
          "name": "optionsCount",
          "type": "uint8"
        },
        {
          "internalType": "enum PollingSys.STATE",
          "name": "state",
          "type": "uint8"
        }
      ],
      "stateMutability": "view",
      "type": "function",
      "constant": true
    },
    {
      "inputs": [
        {
          "internalType": "uint8",
          "name": "_pollId",
          "type": "uint8"
        },
        {
          "internalType": "address",
          "name": "_voter",
          "type": "address"
        }
      ],
      "name": "hasVoted",
      "outputs": [
        {
          "internalType": "bool",
          "name": "",
          "type": "bool"
        }
      ],
      "stateMutability": "view",
      "type": "function",
      "constant": true
    },
    {
      "inputs": [
        {
          "internalType": "string",
          "name": "_title",
          "type": "string"
        }
      ],
      "name": "createPoll",
      "outputs": [],
      "stateMutability": "nonpayable",
      "type": "function"
    },
    {
      "inputs": [
        {
          "internalType": "uint8",
          "name": "_pollId",
          "type": "uint8"
        },
        {
          "internalType": "string",
          "name": "_name",
          "type": "string"
        }
      ],
      "name": "addOptionsToPoll",
      "outputs": [],
      "stateMutability": "nonpayable",
      "type": "function"
    },
    {
      "inputs": [
        {
          "internalType": "uint8",
          "name": "_pollId",
          "type": "uint8"
        },
        {
          "internalType": "uint8",
          "name": "_optionId",
          "type": "uint8"
        }
      ],
      "name": "vote",
      "outputs": [],
      "stateMutability": "nonpayable",
      "type": "function"
    },
    {
      "inputs": [
        {
          "internalType": "uint8",
          "name": "_pollId",
          "type": "uint8"
        },
        {
          "internalType": "uint8",
          "name": "_optionId",
          "type": "uint8"
        }
      ],
      "name": "getVoteCount",
      "outputs": [
        {
          "internalType": "uint256",
          "name": "",
          "type": "uint256"
        }
      ],
      "stateMutability": "view",
      "type": "function",
      "constant": true
    },
    {
      "inputs": [
        {
          "internalType": "uint8",
          "name": "_pollId",
          "type": "uint8"
        },
        {
          "internalType": "uint8",
          "name": "_optionId",
          "type": "uint8"
        }
      ],
      "name": "getOptionById",
      "outputs": [
        {
          "components": [
            {
              "internalType": "uint8",
              "name": "id",
              "type": "uint8"
            },
            {
              "internalType": "string",
              "name": "name",
              "type": "string"
            },
            {
              "internalType": "uint256",
              "name": "voteCount",
              "type": "uint256"
            }
          ],
          "internalType": "struct PollingSys.Option",
          "name": "",
          "type": "tuple"
        }
      ],
      "stateMutability": "view",
      "type": "function",
      "constant": true
    },
    {
      "inputs": [
        {
          "internalType": "uint8",
          "name": "_pollId",
          "type": "uint8"
        },
        {
          "internalType": "enum PollingSys.STATE",
          "name": "_newState",
          "type": "uint8"
        }
      ],
      "name": "changePollState",
      "outputs": [],
      "stateMutability": "nonpayable",
      "type": "function"
    },
    {
      "inputs": [
        {
          "internalType": "uint8",
          "name": "_pollId",
          "type": "uint8"
        }
      ],
      "name": "getPollResult",
      "outputs": [
        {
          "internalType": "uint8[]",
          "name": "optionIds",
          "type": "uint8[]"
        },
        {
          "internalType": "uint256[]",
          "name": "voteCounts",
          "type": "uint256[]"
        }
      ],
      "stateMutability": "view",
      "type": "function",
      "constant": true
    }
  ],
  "bytecode": "0x608060405234801561001057600080fd5b50611dc9806100206000396000f3fe608060405234801561001057600080fd5b506004361061009e5760003560e01c80639207891d116100665780639207891d1461016c578063927011dd1461018a578063a748dc9b146101be578063c8e1107d146101da578063df49c4de1461020a5761009e565b806304b1d173146100a357806310eaa61d146100d45780631eb6e0191461010457806374a9ced914610120578063872884401461013c575b600080fd5b6100bd60048036038101906100b891906111ff565b610226565b6040516100cb92919061172d565b60405180910390f35b6100ee60048036038101906100e991906112f4565b61046e565b6040516100fb919061187a565b60405180910390f35b61011e60048036038101906101199190611264565b610575565b005b61013a600480360381019061013591906111be565b610779565b005b61015660048036038101906101519190611228565b610900565b6040516101639190611764565b60405180910390f35b610174610974565b60405161018191906118b7565b60405180910390f35b6101a4600480360381019061019f91906111ff565b610985565b6040516101b5959493929190611910565b60405180910390f35b6101d860048036038101906101d391906112a0565b610a8a565b005b6101f460048036038101906101ef91906112f4565b610d65565b604051610201919061189c565b60405180910390f35b610224600480360381019061021f91906112f4565b610da6565b005b6060806000600160008560ff1660ff168152602001908152602001600020905060008160020160009054906101000a900460ff1690508060ff1667ffffffffffffffff81111561029f577f4e487b7100000000000000000000000000000000000000000000000000000000600052604160045260246000fd5b6040519080825280602002602001820160405280156102cd5781602001602082028036833780820191505090505b5093508060ff1667ffffffffffffffff811115610313577f4e487b7100000000000000000000000000000000000000000000000000000000600052604160045260246000fd5b6040519080825280602002602001820160405280156103415781602001602082028036833780820191505090505b5092506000600190505b8160ff168160ff1611610466578260030160008260ff1660ff16815260200190815260200160002060000160009054906101000a900460ff16856001836103929190611adf565b60ff16815181106103cc577f4e487b7100000000000000000000000000000000000000000000000000000000600052603260045260246000fd5b602002602001019060ff16908160ff16815250508260030160008260ff1660ff168152602001908152602001600020600201548460018361040d9190611adf565b60ff1681518110610447577f4e487b7100000000000000000000000000000000000000000000000000000000600052603260045260246000fd5b602002602001018181525050808061045e90611c4a565b91505061034b565b505050915091565b610476611050565b600160008460ff1660ff16815260200190815260200160002060030160008360ff1660ff1681526020019081526020016000206040518060600160405290816000820160009054906101000a900460ff1660ff1660ff1681526020016001820180546104e190611bcf565b80601f016020809104026020016040519081016040528092919081815260200182805461050d90611bcf565b801561055a5780601f1061052f5761010080835404028352916020019161055a565b820191906000526020600020905b81548152906001019060200180831161053d57829003601f168201915b50505050508152602001600282015481525050905092915050565b6000600160008460ff1660ff16815260200190815260200160002090508060000160019054906101000a900473ffffffffffffffffffffffffffffffffffffffff1673ffffffffffffffffffffffffffffffffffffffff163373ffffffffffffffffffffffffffffffffffffffff1614610624576040517f08c379a000000000000000000000000000000000000000000000000000000000815260040161061b9061181a565b60405180910390fd5b8060050160009054906101000a900460ff16600281111561066e577f4e487b7100000000000000000000000000000000000000000000000000000000600052602160045260246000fd5b8260028111156106a7577f4e487b7100000000000000000000000000000000000000000000000000000000600052602160045260246000fd5b116106e7576040517f08c379a00000000000000000000000000000000000000000000000000000000081526004016106de9061185a565b60405180910390fd5b818160050160006101000a81548160ff02191690836002811115610734577f4e487b7100000000000000000000000000000000000000000000000000000000600052602160045260246000fd5b02179055508260ff167fe8a97ea87e4388fa22d496b95a8ed5ced6717f49790318de2b928aaf37a021d88360405161076c919061177f565b60405180910390a2505050565b60008081819054906101000a900460ff168092919061079790611c4a565b91906101000a81548160ff021916908360ff160217905550506000600160008060009054906101000a900460ff1660ff1660ff168152602001908152602001600020905060008054906101000a900460ff168160000160006101000a81548160ff021916908360ff160217905550338160000160016101000a81548173ffffffffffffffffffffffffffffffffffffffff021916908373ffffffffffffffffffffffffffffffffffffffff16021790555081816001019080519060200190610860929190611074565b5060008160050160006101000a81548160ff021916908360028111156108af577f4e487b7100000000000000000000000000000000000000000000000000000000600052602160045260246000fd5b02179055507fc6b59520e007e34c40ece452816742b025a34e535a2853e2f3b246b9d603305f60008054906101000a900460ff1633846040516108f4939291906118d2565b60405180910390a15050565b6000600160008460ff1660ff16815260200190815260200160002060040160008373ffffffffffffffffffffffffffffffffffffffff1673ffffffffffffffffffffffffffffffffffffffff16815260200190815260200160002060000160019054906101000a900460ff16905092915050565b60008054906101000a900460ff1681565b60016020528060005260406000206000915090508060000160009054906101000a900460ff16908060000160019054906101000a900473ffffffffffffffffffffffffffffffffffffffff16908060010180546109e190611bcf565b80601f0160208091040260200160405190810160405280929190818152602001828054610a0d90611bcf565b8015610a5a5780601f10610a2f57610100808354040283529160200191610a5a565b820191906000526020600020905b815481529060010190602001808311610a3d57829003601f168201915b5050505050908060020160009054906101000a900460ff16908060050160009054906101000a900460ff16905085565b81600160008260ff1660ff16815260200190815260200160002060000160019054906101000a900473ffffffffffffffffffffffffffffffffffffffff1673ffffffffffffffffffffffffffffffffffffffff163373ffffffffffffffffffffffffffffffffffffffff1614610b35576040517f08c379a0000000000000000000000000000000000000000000000000000000008152600401610b2c906117da565b60405180910390fd5b826000806002811115610b71577f4e487b7100000000000000000000000000000000000000000000000000000000600052602160045260246000fd5b600160008460ff1660ff16815260200190815260200160002060050160009054906101000a900460ff166002811115610bd3577f4e487b7100000000000000000000000000000000000000000000000000000000600052602160045260246000fd5b14610c13576040517f08c379a0000000000000000000000000000000000000000000000000000000008152600401610c0a9061179a565b60405180910390fd5b6000600160008760ff1660ff168152602001908152602001600020905080600201600081819054906101000a900460ff1680929190610c5190611c4a565b91906101000a81548160ff021916908360ff1602179055505060405180606001604052808260020160009054906101000a900460ff1660ff16815260200186815260200160008152508160030160008360020160009054906101000a900460ff1660ff1660ff16815260200190815260200160002060008201518160000160006101000a81548160ff021916908360ff1602179055506020820151816001019080519060200190610d03929190611074565b50604082015181600201559050507f68f0f4f8783fab504e65f3c157502ba148ae373c1c7f0d365c8d33cfa62e5854868260020160009054906101000a900460ff1687604051610d55939291906119a1565b60405180910390a1505050505050565b6000600160008460ff1660ff16815260200190815260200160002060030160008360ff1660ff16815260200190815260200160002060020154905092915050565b8160016002811115610de1577f4e487b7100000000000000000000000000000000000000000000000000000000600052602160045260246000fd5b600160008360ff1660ff16815260200190815260200160002060050160009054906101000a900460ff166002811115610e43577f4e487b7100000000000000000000000000000000000000000000000000000000600052602160045260246000fd5b14610e83576040517f08c379a0000000000000000000000000000000000000000000000000000000008152600401610e7a906117fa565b60405180910390fd5b6000600160008560ff1660ff168152602001908152602001600020905060008160040160003373ffffffffffffffffffffffffffffffffffffffff1673ffffffffffffffffffffffffffffffffffffffff16815260200190815260200160002090508060000160019054906101000a900460ff1615610f37576040517f08c379a0000000000000000000000000000000000000000000000000000000008152600401610f2e9061183a565b60405180910390fd5b60008460ff16118015610f6157508160020160009054906101000a900460ff1660ff168460ff1611155b610fa0576040517f08c379a0000000000000000000000000000000000000000000000000000000008152600401610f97906117ba565b60405180910390fd5b8160030160008560ff1660ff1681526020019081526020016000206002016000815480929190610fcf90611c01565b919050555060018160000160016101000a81548160ff021916908315150217905550838160000160026101000a81548160ff021916908360ff1602179055507f51c6541400e7d16e7c379115ca484756f9f6217b0e25bee5121f2c28d3bb54208533866040516110419392919061196a565b60405180910390a15050505050565b6040518060600160405280600060ff16815260200160608152602001600081525090565b82805461108090611bcf565b90600052602060002090601f0160209004810192826110a257600085556110e9565b82601f106110bb57805160ff19168380011785556110e9565b828001600101855582156110e9579182015b828111156110e85782518255916020019190600101906110cd565b5b5090506110f691906110fa565b5090565b5b808211156111135760008160009055506001016110fb565b5090565b600061112a61112584611a10565b6119df565b90508281526020810184848401111561114257600080fd5b61114d848285611b8d565b509392505050565b60008135905061116481611d55565b92915050565b60008135905061117981611d6c565b92915050565b600082601f83011261119057600080fd5b81356111a0848260208601611117565b91505092915050565b6000813590506111b881611d7c565b92915050565b6000602082840312156111d057600080fd5b600082013567ffffffffffffffff8111156111ea57600080fd5b6111f68482850161117f565b91505092915050565b60006020828403121561121157600080fd5b600061121f848285016111a9565b91505092915050565b6000806040838503121561123b57600080fd5b6000611249858286016111a9565b925050602061125a85828601611155565b9150509250929050565b6000806040838503121561127757600080fd5b6000611285858286016111a9565b92505060206112968582860161116a565b9150509250929050565b600080604083850312156112b357600080fd5b60006112c1858286016111a9565b925050602083013567ffffffffffffffff8111156112de57600080fd5b6112ea8582860161117f565b9150509250929050565b6000806040838503121561130757600080fd5b6000611315858286016111a9565b9250506020611326858286016111a9565b9150509250929050565b600061133c83836116f1565b60208301905092915050565b6000611354838361170f565b60208301905092915050565b61136981611b13565b82525050565b600061137a82611a60565b6113848185611a9b565b935061138f83611a40565b8060005b838110156113c05781516113a78882611330565b97506113b283611a81565b925050600181019050611393565b5085935050505092915050565b60006113d882611a6b565b6113e28185611aac565b93506113ed83611a50565b8060005b8381101561141e5781516114058882611348565b975061141083611a8e565b9250506001810190506113f1565b5085935050505092915050565b61143481611b25565b82525050565b61144381611b7b565b82525050565b600061145482611a76565b61145e8185611abd565b935061146e818560208601611b9c565b61147781611d30565b840191505092915050565b600061148d82611a76565b6114978185611ace565b93506114a7818560208601611b9c565b6114b081611d30565b840191505092915050565b60006114c8601283611ace565b91507f496e76616c696420706f6c6c20737461746500000000000000000000000000006000830152602082019050919050565b6000611508600e83611ace565b91507f496e76616c6964206f7074696f6e0000000000000000000000000000000000006000830152602082019050919050565b6000611548602083611ace565b91507f4f6e6c7920617574686f722063616e206d616e616765207468697320706f6c6c6000830152602082019050919050565b6000611588601f83611ace565b91507f506f6c6c206973206e6f7420696e2074686520766f74696e67207068617365006000830152602082019050919050565b60006115c8602a83611ace565b91507f4f6e6c79207468652063726561746f722063616e206368616e6765207468652060008301527f706f6c6c207374617465000000000000000000000000000000000000000000006020830152604082019050919050565b600061162e601783611ace565b91507f566f7465722068617320616c726561647920766f7465640000000000000000006000830152602082019050919050565b600061166e601883611ace565b91507f496e76616c6964207374617465207472616e736974696f6e00000000000000006000830152602082019050919050565b60006060830160008301516116b9600086018261170f565b50602083015184820360208601526116d18282611449565b91505060408301516116e660408601826116f1565b508091505092915050565b6116fa81611b64565b82525050565b61170981611b64565b82525050565b61171881611b6e565b82525050565b61172781611b6e565b82525050565b6000604082019050818103600083015261174781856113cd565b9050818103602083015261175b818461136f565b90509392505050565b6000602082019050611779600083018461142b565b92915050565b6000602082019050611794600083018461143a565b92915050565b600060208201905081810360008301526117b3816114bb565b9050919050565b600060208201905081810360008301526117d3816114fb565b9050919050565b600060208201905081810360008301526117f38161153b565b9050919050565b600060208201905081810360008301526118138161157b565b9050919050565b60006020820190508181036000830152611833816115bb565b9050919050565b6000602082019050818103600083015261185381611621565b9050919050565b6000602082019050818103600083015261187381611661565b9050919050565b6000602082019050818103600083015261189481846116a1565b905092915050565b60006020820190506118b16000830184611700565b92915050565b60006020820190506118cc600083018461171e565b92915050565b60006060820190506118e7600083018661171e565b6118f46020830185611360565b81810360408301526119068184611482565b9050949350505050565b600060a082019050611925600083018861171e565b6119326020830187611360565b81810360408301526119448186611482565b9050611953606083018561171e565b611960608083018461143a565b9695505050505050565b600060608201905061197f600083018661171e565b61198c6020830185611360565b611999604083018461171e565b949350505050565b60006060820190506119b6600083018661171e565b6119c3602083018561171e565b81810360408301526119d58184611482565b9050949350505050565b6000604051905081810181811067ffffffffffffffff82111715611a0657611a05611d01565b5b8060405250919050565b600067ffffffffffffffff821115611a2b57611a2a611d01565b5b601f19601f8301169050602081019050919050565b6000819050602082019050919050565b6000819050602082019050919050565b600081519050919050565b600081519050919050565b600081519050919050565b6000602082019050919050565b6000602082019050919050565b600082825260208201905092915050565b600082825260208201905092915050565b600082825260208201905092915050565b600082825260208201905092915050565b6000611aea82611b6e565b9150611af583611b6e565b925082821015611b0857611b07611c74565b5b828203905092915050565b6000611b1e82611b44565b9050919050565b60008115159050919050565b6000819050611b3f82611d41565b919050565b600073ffffffffffffffffffffffffffffffffffffffff82169050919050565b6000819050919050565b600060ff82169050919050565b6000611b8682611b31565b9050919050565b82818337600083830152505050565b60005b83811015611bba578082015181840152602081019050611b9f565b83811115611bc9576000848401525b50505050565b60006002820490506001821680611be757607f821691505b60208210811415611bfb57611bfa611cd2565b5b50919050565b6000611c0c82611b64565b91507fffffffffffffffffffffffffffffffffffffffffffffffffffffffffffffffff821415611c3f57611c3e611c74565b5b600182019050919050565b6000611c5582611b6e565b915060ff821415611c6957611c68611c74565b5b600182019050919050565b7f4e487b7100000000000000000000000000000000000000000000000000000000600052601160045260246000fd5b7f4e487b7100000000000000000000000000000000000000000000000000000000600052602160045260246000fd5b7f4e487b7100000000000000000000000000000000000000000000000000000000600052602260045260246000fd5b7f4e487b7100000000000000000000000000000000000000000000000000000000600052604160045260246000fd5b6000601f19601f8301169050919050565b60038110611d5257611d51611ca3565b5b50565b611d5e81611b13565b8114611d6957600080fd5b50565b60038110611d7957600080fd5b50565b611d8581611b6e565b8114611d9057600080fd5b5056fea2646970667358221220cd9dcdf4f7eb544c8e12ddd6de65913d9456ad702566b080418993b5b958ef7464736f6c63430008000033",
  "immutableReferences": {},
  "source": "// SPDX-License-Identifier: MIT\r\npragma solidity ^0.8.0;\r\n\r\ncontract PollingSys {\r\n    struct Option {\r\n        uint8 id;\r\n        string name;\r\n        uint voteCount;\r\n    }\r\n\r\n    struct Voter {\r\n        bool isRegistered;\r\n        bool hasVoted;\r\n        uint8 vote;\r\n    }\r\n\r\n    struct Poll {\r\n        uint8 id;\r\n        address author;\r\n        string title;\r\n        uint8 optionsCount;\r\n        mapping(uint8 => Option) options;\r\n        mapping(address => Voter) voters;\r\n        STATE state;\r\n    }\r\n\r\n    enum STATE {\r\n        created,\r\n        voting,\r\n        finished\r\n    }\r\n\r\n    uint8 public pollCount;\r\n    mapping(uint8 => Poll) public polls;\r\n\r\n    event PollCreated(uint8 pollId, address author, string title);\r\n    event OptionAdded(uint8 pollId, uint8 optionId, string name);\r\n    event Voted(uint8 pollId, address voter, uint8 optionId);\r\n    // S kin  theo di thay i trng thi\r\n    event StateChanged(uint8 indexed pollId, STATE newState);\r\n\r\n    modifier onlyAuthor(uint8 _pollId) {\r\n        require(msg.sender == polls[_pollId].author, \"Only author can manage this poll\");\r\n        _;\r\n    }\r\n\r\n    modifier validState(uint8 _pollId, STATE x) {\r\n        require(polls[_pollId].state == x, \"Invalid poll state\");\r\n        _;\r\n    }\r\n\r\n    modifier onlyVotingState(uint8 pollId) {\r\n        require(polls[pollId].state == STATE.voting, \"Poll is not in the voting phase\");\r\n        _;\r\n    }\r\n\r\n    // hm kim tra a ch  vote cha\r\n    // function hasVoted(uint8 _pollId) public view returns (bool) {\r\n    // return polls[_pollId].voters[msg.sender].hasVoted;\r\n    // }\r\n    function hasVoted(uint8 _pollId, address _voter) public view returns (bool) {\r\n    return polls[_pollId].voters[_voter].hasVoted;\r\n}\r\n    function createPoll(string memory _title) public {\r\n        pollCount++;\r\n        Poll storage newPoll = polls[pollCount];\r\n        newPoll.id = pollCount;\r\n        newPoll.author = msg.sender;\r\n        newPoll.title = _title;\r\n        newPoll.state = STATE.created;\r\n\r\n        emit PollCreated(pollCount, msg.sender, _title);\r\n    }\r\n\r\n    function addOptionsToPoll(uint8 _pollId, string memory _name) \r\n        public onlyAuthor(_pollId) validState(_pollId, STATE.created) \r\n    {\r\n        Poll storage poll = polls[_pollId];\r\n        poll.optionsCount++;\r\n        poll.options[poll.optionsCount] = Option(poll.optionsCount, _name, 0);\r\n\r\n        emit OptionAdded(_pollId, poll.optionsCount, _name);\r\n    }\r\n\r\n    function vote(uint8 _pollId, uint8 _optionId) \r\n        public onlyVotingState(_pollId)\r\n    {\r\n        Poll storage poll = polls[_pollId];\r\n        Voter storage voter = poll.voters[msg.sender];\r\n\r\n        require(!voter.hasVoted, \"Voter has already voted\");\r\n        require(_optionId > 0 && _optionId <= poll.optionsCount, \"Invalid option\");\r\n\r\n        poll.options[_optionId].voteCount++;\r\n        voter.hasVoted = true;\r\n        voter.vote = _optionId;\r\n\r\n        emit Voted(_pollId, msg.sender, _optionId);\r\n    }\r\n\r\n//     function getPollResult(uint8 _pollId) public view returns (Option[] memory) {\r\n//     Poll storage poll = polls[_pollId];\r\n//     Option[] memory results = new Option[](poll.optionsCount);\r\n\r\n//     for (uint8 i = 1; i <= poll.optionsCount; i++) {\r\n//         Option memory option;\r\n//         option.id = i;\r\n//         option.name = poll.options[i].name;  \r\n//         option.voteCount = poll.options[i].voteCount;\r\n//         results[i - 1] = option;\r\n//     }\r\n\r\n//     return results;\r\n// }\r\n\r\n    //Hm get vote count per option\r\n    function getVoteCount(uint8 _pollId, uint8 _optionId) public view returns (uint) {\r\n    return polls[_pollId].options[_optionId].voteCount;\r\n}\r\n\r\n    // Hm get option by id\r\n    function getOptionById(uint8 _pollId, uint8 _optionId) public view returns (Option memory) {\r\n    return polls[_pollId].options[_optionId];\r\n}\r\n\r\n    // Hm  thay i trng thi ca poll\r\nfunction changePollState(uint8 _pollId, STATE _newState) public {\r\n    Poll storage poll = polls[_pollId];\r\n\r\n    // Kim tra quyn \r\n    require(msg.sender == poll.author, \"Only the creator can change the poll state\");\r\n\r\n    // Kim tra logic (trng thi mi phi hp l )\r\n    require(_newState > poll.state, \"Invalid state transition\");\r\n\r\n    // Cp nht trng thi\r\n    poll.state = _newState;\r\n\r\n    // Pht s kin\r\n    emit StateChanged(_pollId, _newState);\r\n}\r\n\r\n\r\n    function getPollResult(uint8 _pollId) \r\n        public \r\n        view \r\n        returns (uint8[] memory optionIds, uint[] memory voteCounts) \r\n    {\r\n        Poll storage poll = polls[_pollId];\r\n        uint8 count = poll.optionsCount;\r\n\r\n        optionIds = new uint8[](count);\r\n        voteCounts = new uint[](count);\r\n\r\n        for (uint8 i = 1; i <= count; i++) {\r\n            optionIds[i - 1] = poll.options[i].id;\r\n            voteCounts[i - 1] = poll.options[i].voteCount;\r\n        }\r\n\r\n        return (optionIds, voteCounts);\r\n    }\r\n\r\n} ",
  "sourcePath": "D:\\KhoaLuanTotNghiep\\Voting_Reactjs\\polling_backend_nodejs\\contracts\\PollingSys.sol",
  "compiler": {
    "name": "solc",
    "version": "0.8.0+commit.c7dfd78e.Emscripten.clang"
  },
  "schemaVersion": "3.4.16",
  "updatedAt": "2024-12-05T15:16:37.440Z",
  "networkType": "ethereum",
  "devdoc": {
    "kind": "dev",
    "methods": {},
    "version": 1
  },
  "userdoc": {
    "kind": "user",
    "methods": {},
    "version": 1
  }
}